[
  {
    "type": "sent",
    "txid": "27df5727038702cb6ee89df1696019b798e2c38d8e2eb299a73caa24bbbe6d43",
    "hex": "01000000000101cfb0e573172e938721aba5750bcebe2abca06f8b8e42455633169bb1a83788be0100000000fdffffff02a086010000000000160014ed6930aebeb2a76ddab09a29d390c43cd08b1cbe60aeaa0000000000160014ce0bb8b504eb010f75cc9cc0f9e74acae6e7aafc0247304402203bca2b97bb018db8ed050a854d612aba38a474642fe35d255a8946dbedc73d46022057439d8d48e207f1162bc0a156db44927b2dd2cb5ea97a8aaf07aa5c65279b8f01210216af318aaa01fb34d8ec8a2e7821359d809c711a16d7d2a84ad4cd4aace4525200000000",
    "blockTime": 1726669882,
    "blockHeight": -1,
    "amount": "100000",
    "fee": "282",
    "vsize": 141,
    "feeRate": "2",
    "targets": [
      {
        "n": 0,
        "addresses": ["tb1qa45npt47k2nkmk4sng5a8yxy8nggk897u5pmq9"],
        "isAddress": true,
        "amount": "100000"
      }
    ],
    "tokens": [],
    "internalTransfers": [],
    "rbf": true,
    "details": {
      "vin": [
        {
          "txid": "be8837a8b19b16335645428e8b6fa0bc2abece0b75a5ab2187932e1773e5b0cf",
          "vout": 1,
          "sequence": 4294967293,
          "n": 0,
          "addresses": ["tb1qwvzjepm3mst9twy0qp68e6nceh4n25pqz0cz6p"],
          "isAddress": true,
          "isOwn": true,
          "value": "11286042",
          "isAccountOwned": true
        }
      ],
      "vout": [
        {
          "value": "100000",
          "n": 0,
          "hex": "0014ed6930aebeb2a76ddab09a29d390c43cd08b1cbe",
          "addresses": ["tb1qa45npt47k2nkmk4sng5a8yxy8nggk897u5pmq9"],
          "isAddress": true
        },
        {
          "value": "11185760",
          "n": 1,
          "hex": "0014ce0bb8b504eb010f75cc9cc0f9e74acae6e7aafc",
          "addresses": ["tb1qec9m3dgyavqs7awvnnq0ne62etnw02hu54j6lt"],
          "isAddress": true,
          "isOwn": true,
          "isAccountOwned": true
        }
      ],
      "size": 222,
      "totalInput": "11286042",
      "totalOutput": "11285760"
    }
  },

  {
    "inputs": [
      {
        "address_n": [2147483732, 2147483649, 2147483648, 0, 0],
        "prev_index": 0,
        "prev_hash": "5bd82f73de02574cd71775081c2aceebbd314370e90026eb68c42a86f0cc3f58",
        "amount": 2100000,
        "script_type": "SPENDWITNESS",
        "sequence": 4294967295
      }
    ],
    "outputs": [
      {
        "address_n": [2147483732, 2147483649, 2147483648, 1, 55],
        "amount": 2099763,
        "script_type": "PAYTOWITNESS"
      }
    ],
    "coin": "test",
    "push": false,
    "amountUnit": 3
  }
]
